{
  "contractName": "Data",
  "abi": [
    {
      "inputs": [],
      "stateMutability": "nonpayable",
      "type": "constructor"
    },
    {
      "inputs": [
        {
          "internalType": "uint256",
          "name": "",
          "type": "uint256"
        }
      ],
      "name": "ProductId",
      "outputs": [
        {
          "internalType": "string",
          "name": "",
          "type": "string"
        }
      ],
      "stateMutability": "view",
      "type": "function",
      "constant": true
    },
    {
      "inputs": [
        {
          "internalType": "uint256",
          "name": "",
          "type": "uint256"
        }
      ],
      "name": "datesOfDataEntry",
      "outputs": [
        {
          "internalType": "string",
          "name": "",
          "type": "string"
        }
      ],
      "stateMutability": "view",
      "type": "function",
      "constant": true
    },
    {
      "inputs": [
        {
          "internalType": "string",
          "name": "",
          "type": "string"
        }
      ],
      "name": "updated",
      "outputs": [
        {
          "internalType": "string",
          "name": "id",
          "type": "string"
        },
        {
          "internalType": "string",
          "name": "name",
          "type": "string"
        },
        {
          "internalType": "int256",
          "name": "price",
          "type": "int256"
        },
        {
          "internalType": "int256",
          "name": "quantity",
          "type": "int256"
        }
      ],
      "stateMutability": "view",
      "type": "function",
      "constant": true
    },
    {
      "inputs": [
        {
          "internalType": "string",
          "name": "",
          "type": "string"
        },
        {
          "internalType": "uint256",
          "name": "",
          "type": "uint256"
        }
      ],
      "name": "valuesIn",
      "outputs": [
        {
          "internalType": "int256",
          "name": "price",
          "type": "int256"
        },
        {
          "internalType": "int256",
          "name": "quantity",
          "type": "int256"
        }
      ],
      "stateMutability": "view",
      "type": "function",
      "constant": true
    },
    {
      "inputs": [
        {
          "internalType": "string",
          "name": "",
          "type": "string"
        },
        {
          "internalType": "uint256",
          "name": "",
          "type": "uint256"
        }
      ],
      "name": "valuesOut",
      "outputs": [
        {
          "internalType": "int256",
          "name": "price",
          "type": "int256"
        },
        {
          "internalType": "int256",
          "name": "quantity",
          "type": "int256"
        }
      ],
      "stateMutability": "view",
      "type": "function",
      "constant": true
    },
    {
      "inputs": [],
      "name": "getlengthuser",
      "outputs": [
        {
          "internalType": "uint256",
          "name": "",
          "type": "uint256"
        }
      ],
      "stateMutability": "view",
      "type": "function",
      "constant": true
    },
    {
      "inputs": [
        {
          "internalType": "string",
          "name": "mail",
          "type": "string"
        }
      ],
      "name": "sameaccountcheck",
      "outputs": [
        {
          "internalType": "bool",
          "name": "",
          "type": "bool"
        }
      ],
      "stateMutability": "view",
      "type": "function",
      "constant": true
    },
    {
      "inputs": [
        {
          "internalType": "string",
          "name": "mail",
          "type": "string"
        },
        {
          "internalType": "string",
          "name": "passcode",
          "type": "string"
        }
      ],
      "name": "login",
      "outputs": [
        {
          "internalType": "uint256",
          "name": "utype",
          "type": "uint256"
        },
        {
          "internalType": "uint256",
          "name": "id",
          "type": "uint256"
        }
      ],
      "stateMutability": "view",
      "type": "function",
      "constant": true
    },
    {
      "inputs": [
        {
          "internalType": "uint256",
          "name": "utype",
          "type": "uint256"
        },
        {
          "internalType": "string",
          "name": "mail",
          "type": "string"
        },
        {
          "internalType": "string",
          "name": "passcode",
          "type": "string"
        }
      ],
      "name": "signup",
      "outputs": [
        {
          "internalType": "bool",
          "name": "",
          "type": "bool"
        }
      ],
      "stateMutability": "nonpayable",
      "type": "function"
    },
    {
      "inputs": [
        {
          "internalType": "string",
          "name": "_date",
          "type": "string"
        },
        {
          "internalType": "string",
          "name": "_name",
          "type": "string"
        },
        {
          "internalType": "string",
          "name": "_number",
          "type": "string"
        },
        {
          "internalType": "string",
          "name": "expirydate",
          "type": "string"
        },
        {
          "internalType": "int256",
          "name": "_price",
          "type": "int256"
        },
        {
          "internalType": "int256",
          "name": "quantity",
          "type": "int256"
        }
      ],
      "name": "datain",
      "outputs": [
        {
          "internalType": "bool",
          "name": "",
          "type": "bool"
        }
      ],
      "stateMutability": "nonpayable",
      "type": "function"
    },
    {
      "inputs": [
        {
          "internalType": "string",
          "name": "_date",
          "type": "string"
        },
        {
          "internalType": "string",
          "name": "_status",
          "type": "string"
        },
        {
          "internalType": "string[]",
          "name": "_number",
          "type": "string[]"
        },
        {
          "internalType": "int256[]",
          "name": "quantity",
          "type": "int256[]"
        }
      ],
      "name": "dataout",
      "outputs": [],
      "stateMutability": "nonpayable",
      "type": "function"
    },
    {
      "inputs": [
        {
          "internalType": "string",
          "name": "_date",
          "type": "string"
        },
        {
          "internalType": "string[]",
          "name": "inputID",
          "type": "string[]"
        }
      ],
      "name": "expiray",
      "outputs": [
        {
          "internalType": "string",
          "name": "ids",
          "type": "string"
        },
        {
          "internalType": "int256",
          "name": "quantity",
          "type": "int256"
        }
      ],
      "stateMutability": "view",
      "type": "function",
      "constant": true
    },
    {
      "inputs": [
        {
          "internalType": "int256",
          "name": "price",
          "type": "int256"
        },
        {
          "internalType": "string",
          "name": "id",
          "type": "string"
        }
      ],
      "name": "updatePrice",
      "outputs": [
        {
          "internalType": "bool",
          "name": "",
          "type": "bool"
        }
      ],
      "stateMutability": "nonpayable",
      "type": "function"
    },
    {
      "inputs": [
        {
          "internalType": "string",
          "name": "date",
          "type": "string"
        }
      ],
      "name": "totalSpendings",
      "outputs": [
        {
          "internalType": "int256",
          "name": "spendings",
          "type": "int256"
        }
      ],
      "stateMutability": "view",
      "type": "function",
      "constant": true
    },
    {
      "inputs": [
        {
          "internalType": "string",
          "name": "date",
          "type": "string"
        }
      ],
      "name": "totalEarnings",
      "outputs": [
        {
          "internalType": "int256",
          "name": "earning",
          "type": "int256"
        }
      ],
      "stateMutability": "view",
      "type": "function",
      "constant": true
    },
    {
      "inputs": [
        {
          "internalType": "uint256",
          "name": "index",
          "type": "uint256"
        }
      ],
      "name": "returnupdate",
      "outputs": [
        {
          "components": [
            {
              "internalType": "string",
              "name": "id",
              "type": "string"
            },
            {
              "internalType": "string",
              "name": "name",
              "type": "string"
            },
            {
              "internalType": "int256",
              "name": "price",
              "type": "int256"
            },
            {
              "internalType": "int256",
              "name": "quantity",
              "type": "int256"
            }
          ],
          "internalType": "struct Data.supply",
          "name": "",
          "type": "tuple"
        }
      ],
      "stateMutability": "view",
      "type": "function",
      "constant": true
    },
    {
      "inputs": [
        {
          "internalType": "string",
          "name": "date",
          "type": "string"
        }
      ],
      "name": "returndatain",
      "outputs": [
        {
          "components": [
            {
              "internalType": "string[3]",
              "name": "supply",
              "type": "string[3]"
            },
            {
              "internalType": "int256",
              "name": "price",
              "type": "int256"
            },
            {
              "internalType": "int256",
              "name": "quantity",
              "type": "int256"
            }
          ],
          "internalType": "struct Data.stock[]",
          "name": "",
          "type": "tuple[]"
        }
      ],
      "stateMutability": "view",
      "type": "function",
      "constant": true
    },
    {
      "inputs": [
        {
          "internalType": "string",
          "name": "date",
          "type": "string"
        }
      ],
      "name": "returndataout",
      "outputs": [
        {
          "components": [
            {
              "internalType": "string[3]",
              "name": "supply",
              "type": "string[3]"
            },
            {
              "internalType": "int256",
              "name": "price",
              "type": "int256"
            },
            {
              "internalType": "int256",
              "name": "quantity",
              "type": "int256"
            }
          ],
          "internalType": "struct Data.stock[]",
          "name": "",
          "type": "tuple[]"
        }
      ],
      "stateMutability": "view",
      "type": "function",
      "constant": true
    },
    {
      "inputs": [
        {
          "internalType": "string",
          "name": "date",
          "type": "string"
        }
      ],
      "name": "returndatainLength",
      "outputs": [
        {
          "internalType": "uint256",
          "name": "",
          "type": "uint256"
        }
      ],
      "stateMutability": "view",
      "type": "function",
      "constant": true
    },
    {
      "inputs": [
        {
          "internalType": "string",
          "name": "date",
          "type": "string"
        },
        {
          "internalType": "uint256",
          "name": "id",
          "type": "uint256"
        }
      ],
      "name": "returndatainLengthindex",
      "outputs": [
        {
          "components": [
            {
              "internalType": "string[3]",
              "name": "supply",
              "type": "string[3]"
            },
            {
              "internalType": "int256",
              "name": "price",
              "type": "int256"
            },
            {
              "internalType": "int256",
              "name": "quantity",
              "type": "int256"
            }
          ],
          "internalType": "struct Data.stock",
          "name": "",
          "type": "tuple"
        }
      ],
      "stateMutability": "view",
      "type": "function",
      "constant": true
    },
    {
      "inputs": [
        {
          "internalType": "string",
          "name": "date",
          "type": "string"
        }
      ],
      "name": "returndataoutLength",
      "outputs": [
        {
          "internalType": "uint256",
          "name": "",
          "type": "uint256"
        }
      ],
      "stateMutability": "view",
      "type": "function",
      "constant": true
    },
    {
      "inputs": [],
      "name": "returnProductIdLength",
      "outputs": [
        {
          "internalType": "uint256",
          "name": "",
          "type": "uint256"
        }
      ],
      "stateMutability": "view",
      "type": "function",
      "constant": true
    },
    {
      "inputs": [],
      "name": "returnProductId",
      "outputs": [
        {
          "internalType": "string[]",
          "name": "",
          "type": "string[]"
        }
      ],
      "stateMutability": "view",
      "type": "function",
      "constant": true
    }
  ],
  "bytecode": "0x60806040523480156200001157600080fd5b5060408051606081018252600180825282518084018452600f81526e61646d696e40676d61696c2e636f6d60881b6020828101919091528084019182528451808601865260058082526430b236b4b760d91b928201929092529484019490945283549182018455600093909352815160039091027f036b6384b5eca791c62761152d0c79bb0604c104a5fb6f4eb0703f3154bb3db081019182559251919290917f036b6384b5eca791c62761152d0c79bb0604c104a5fb6f4eb0703f3154bb3db190910190620000e29082620001a7565b5060408201516002820190620000f99082620001a7565b50505062000273565b634e487b7160e01b600052604160045260246000fd5b600181811c908216806200012d57607f821691505b6020821081036200014e57634e487b7160e01b600052602260045260246000fd5b50919050565b601f821115620001a257600081815260208120601f850160051c810160208610156200017d5750805b601f850160051c820191505b818110156200019e5782815560010162000189565b5050505b505050565b81516001600160401b03811115620001c357620001c362000102565b620001db81620001d4845462000118565b8462000154565b602080601f831160018114620002135760008415620001fa5750858301515b600019600386901b1c1916600185901b1785556200019e565b600085815260208120601f198616915b82811015620002445788860151825594840194600190910190840162000223565b5085821015620002635787850151600019600388901b60f8161c191681555b5050505050600190811b01905550565b6125a380620002836000396000f3fe608060405234801561001057600080fd5b506004361061014d5760003560e01c8063954a06c6116100c3578063bd9bb2891161007c578063bd9bb2891461031a578063c095bd891461032f578063c5d567af14610342578063cc5d8c9c1461034a578063ceada3db1461035d578063ebbaaf5c1461037057600080fd5b8063954a06c61461029957806398cf84b0146102ac578063993182dc146102cc578063a66fe88d146102df578063a91419d4146102e7578063addbf9d7146102fa57600080fd5b8063505befdf11610115578063505befdf146101f0578063536175de1461021357806358467dbc1461022657806372d22a821461024e578063791d20e9146102715780638be3e2d71461028457600080fd5b80630429fb65146101525780630d0663061461017b578063173644781461019c57806337ed4781146101bc57806343b27808146101dd575b600080fd5b610165610160366004611b6d565b610383565b6040516101729190611bd6565b60405180910390f35b61018e610189366004611d50565b61042f565b604051610172929190611db3565b6101af6101aa366004611dd5565b6107fd565b6040516101729190611e77565b6101cf6101ca366004611dd5565b610949565b604051908152602001610172565b6101af6101eb366004611dd5565b610971565b6102036101fe366004611dd5565b610ab2565b6040519015158152602001610172565b6101cf610221366004611dd5565b610b5a565b610239610234366004611ed9565b610cce565b60408051928352602083019190915201610172565b61026161025c366004611dd5565b610e1b565b6040516101729493929190611f32565b61023961027f366004611f6b565b610f5e565b61028c610fae565b6040516101729190611faf565b6101656102a7366004611b6d565b611087565b6102bf6102ba366004611f6b565b611097565b6040516101729190612004565b6102036102da366004612017565b6111c0565b6005546101cf565b6101cf6102f5366004611dd5565b61128c565b61030d610308366004611b6d565b611362565b6040516101729190612083565b61032d6103283660046120dd565b611511565b005b6101cf61033d366004611dd5565b6117dc565b6003546101cf565b610239610358366004611f6b565b6117ed565b61020361036b3660046121dc565b611818565b61020361037e36600461229a565b611a38565b6003818154811061039357600080fd5b9060005260206000200160009150905080546103ae906122d6565b80601f01602080910402602001604051908101604052809291908181526020018280546103da906122d6565b80156104275780601f106103fc57610100808354040283529160200191610427565b820191906000526020600020905b81548152906001019060200180831161040a57829003601f168201915b505050505081565b6060600081816001815b6004548110156107ca5760005b60006004838154811061045b5761045b612310565b906000526020600020016040516104729190612326565b908152604051908190036020019020548110156107b757600192508860405160200161049e919061239c565b604051602081830303815290604052805190602001206000600484815481106104c9576104c9612310565b906000526020600020016040516104e09190612326565b908152602001604051809103902082815481106104ff576104ff612310565b600091825260209091206005909102016002016040516020016105229190612326565b60405160208183030381529060405280519060200120036107a5578751156107905760005b885181101561062d5788818151811061056257610562612310565b602002602001015160405160200161057a919061239c565b604051602081830303815290604052805190602001206000600485815481106105a5576105a5612310565b906000526020600020016040516105bc9190612326565b908152602001604051809103902083815481106105db576105db612310565b600091825260208220600590910201016040516020016105fb9190612326565b604051602081830303815290604052805190602001200361061b57600093505b80610625816123ce565b915050610547565b5082151560010361078b5760006004838154811061064d5761064d612310565b906000526020600020016040516106649190612326565b9081526020016040518091039020818154811061068357610683612310565b90600052602060002090600502016004015493506000600483815481106106ac576106ac612310565b906000526020600020016040516106c39190612326565b908152602001604051809103902081815481106106e2576106e2612310565b6000918252602082206005909102010180546106fd906122d6565b80601f0160208091040260200160405190810160405280929190818152602001828054610729906122d6565b80156107765780601f1061074b57610100808354040283529160200191610776565b820191906000526020600020905b81548152906001019060200180831161075957829003601f168201915b50939a509698506107f6975050505050505050565b6107a5565b60006004838154811061064d5761064d612310565b806107af816123ce565b915050610446565b50806107c2816123ce565b915050610439565b505060408051808201909152600d81526c1393d512125391c81193d55391609a1b602082015293509150505b9250929050565b606060008260405161080f919061239c565b9081526020016040518091039020805480602002602001604051908101604052809291908181526020016000905b8282101561093e576000848152602081206040805160c08101909152916005850290910190829060608201908390600390835b82821015610913578382018054610886906122d6565b80601f01602080910402602001604051908101604052809291908181526020018280546108b2906122d6565b80156108ff5780601f106108d4576101008083540402835291602001916108ff565b820191906000526020600020905b8154815290600101906020018083116108e257829003601f168201915b505050505081526020019060010190610870565b505050508152602001600382015481526020016004820154815250508152602001906001019061083d565b505050509050919050565b600060018260405161095b919061239c565b9081526040519081900360200190205492915050565b6060600182604051610983919061239c565b9081526020016040518091039020805480602002602001604051908101604052809291908181526020016000905b8282101561093e576000848152602081206040805160c08101909152916005850290910190829060608201908390600390835b82821015610a875783820180546109fa906122d6565b80601f0160208091040260200160405190810160405280929190818152602001828054610a26906122d6565b8015610a735780601f10610a4857610100808354040283529160200191610a73565b820191906000526020600020905b815481529060010190602001808311610a5657829003601f168201915b5050505050815260200190600101906109e4565b50505050815260200160038201548152602001600482015481525050815260200190600101906109b1565b6000805b600554811015610b515782604051602001610ad1919061239c565b6040516020818303038152906040528051906020012060058281548110610afa57610afa612310565b9060005260206000209060030201600101604051602001610b1b9190612326565b6040516020818303038152906040528051906020012003610b3f5750600192915050565b80610b49816123ce565b915050610ab6565b50600092915050565b600080805b600184604051610b6f919061239c565b90815260405190819003602001902054811015610cc757604051631cdbdb1960e21b602082015260240160405160208183030381529060405280519060200120600185604051610bbf919061239c565b90815260200160405180910390208281548110610bde57610bde612310565b60009182526020909120600590910201600101604051602001610c019190612326565b6040516020818303038152906040528051906020012003610cb557600084604051610c2c919061239c565b90815260200160405180910390208181548110610c4b57610c4b612310565b906000526020600020906005020160030154600085604051610c6d919061239c565b90815260200160405180910390208281548110610c8c57610c8c612310565b906000526020600020906005020160040154610ca891906123e7565b610cb29083612417565b91505b80610cbf816123ce565b915050610b5f565b5092915050565b60008060005b600554811015610e0e5784604051602001610cef919061239c565b6040516020818303038152906040528051906020012060058281548110610d1857610d18612310565b9060005260206000209060030201600101604051602001610d399190612326565b60405160208183030381529060405280519060200120148015610dca575083604051602001610d68919061239c565b6040516020818303038152906040528051906020012060058281548110610d9157610d91612310565b9060005260206000209060030201600201604051602001610db29190612326565b60405160208183030381529060405280519060200120145b15610dfc5760058181548110610de257610de2612310565b6000918252602090912060039091020154925090506107f6565b80610e06816123ce565b915050610cd4565b5060009485945092505050565b8051602081830181018051600282529282019190930120915280548190610e41906122d6565b80601f0160208091040260200160405190810160405280929190818152602001828054610e6d906122d6565b8015610eba5780601f10610e8f57610100808354040283529160200191610eba565b820191906000526020600020905b815481529060010190602001808311610e9d57829003601f168201915b505050505090806001018054610ecf906122d6565b80601f0160208091040260200160405190810160405280929190818152602001828054610efb906122d6565b8015610f485780601f10610f1d57610100808354040283529160200191610f48565b820191906000526020600020905b815481529060010190602001808311610f2b57829003601f168201915b5050505050908060020154908060030154905084565b81516020818401810180516000825292820191850191909120919052805482908110610f8957600080fd5b9060005260206000209060050201600091509150508060030154908060040154905082565b60606003805480602002602001604051908101604052809291908181526020016000905b8282101561107e578382906000526020600020018054610ff1906122d6565b80601f016020809104026020016040519081016040528092919081815260200182805461101d906122d6565b801561106a5780601f1061103f5761010080835404028352916020019161106a565b820191906000526020600020905b81548152906001019060200180831161104d57829003601f168201915b505050505081526020019060010190610fd2565b50505050905090565b6004818154811061039357600080fd5b61109f611a67565b6000836040516110af919061239c565b908152602001604051809103902082815481106110ce576110ce612310565b6000918252602082206040805160c081019091529260059092020190829060608201908390600390835b8282101561119b57838201805461110e906122d6565b80601f016020809104026020016040519081016040528092919081815260200182805461113a906122d6565b80156111875780601f1061115c57610100808354040283529160200191611187565b820191906000526020600020905b81548152906001019060200180831161116a57829003601f168201915b5050505050815260200190600101906110f8565b5050505081526020016003820154815260200160048201548152505090505b92915050565b60006111cb83610ab2565b15156001036111dc57506000611285565b604080516060810182528581526020810185815291810184905260058054600181018255600091909152815160039091027f036b6384b5eca791c62761152d0c79bb0604c104a5fb6f4eb0703f3154bb3db081019182559251919290917f036b6384b5eca791c62761152d0c79bb0604c104a5fb6f4eb0703f3154bb3db190910190611268908261248e565b506040820151600282019061127d908261248e565b505050600190505b9392505050565b600080805b6000846040516112a1919061239c565b90815260405190819003602001902054811015610cc7576000846040516112c8919061239c565b908152602001604051809103902081815481106112e7576112e7612310565b906000526020600020906005020160030154600085604051611309919061239c565b9081526020016040518091039020828154811061132857611328612310565b90600052602060002090600502016004015461134491906123e7565b61134e9083612417565b91508061135a816123ce565b915050611291565b61138d6040518060800160405280606081526020016060815260200160008152602001600081525090565b6002600383815481106113a2576113a2612310565b906000526020600020016040516113b99190612326565b90815260200160405180910390206040518060800160405290816000820180546113e2906122d6565b80601f016020809104026020016040519081016040528092919081815260200182805461140e906122d6565b801561145b5780601f106114305761010080835404028352916020019161145b565b820191906000526020600020905b81548152906001019060200180831161143e57829003601f168201915b50505050508152602001600182018054611474906122d6565b80601f01602080910402602001604051908101604052809291908181526020018280546114a0906122d6565b80156114ed5780601f106114c2576101008083540402835291602001916114ed565b820191906000526020600020905b8154815290600101906020018083116114d057829003601f168201915b50505050508152602001600282015481526020016003820154815250509050919050565b60005b82518110156117d5576000600284838151811061153357611533612310565b6020026020010151604051611548919061239c565b90815260200160405180910390206002015413156117c357611568611a8e565b604051806060016040528085848151811061158557611585612310565b602002602001015181526020018681526020016040518060400160405280600581526020016418da1a5b1b60da1b81525081525090506001866040516115cb919061239c565b9081526020016040518091039020604051806060016040528083815260200160028786815181106115fe576115fe612310565b6020026020010151604051611613919061239c565b908152602001604051809103902060020154815260200185858151811061163c5761163c612310565b6020908102919091018101519091528254600181018455600093845292208151919260050201906116709082906003611ab5565b506020820151816003015560408201518160040155505082828151811061169957611699612310565b602002602001015160028584815181106116b5576116b5612310565b60200260200101516040516116ca919061239c565b908152602001604051809103902060030154121561172557600060028584815181106116f8576116f8612310565b602002602001015160405161170d919061239c565b908152604051908190036020019020600301556117c1565b82828151811061173757611737612310565b6020026020010151600285848151811061175357611753612310565b6020026020010151604051611768919061239c565b908152602001604051809103902060030154611784919061254d565b600285848151811061179857611798612310565b60200260200101516040516117ad919061239c565b908152604051908190036020019020600301555b505b806117cd816123ce565b915050611514565b5050505050565b6000808260405161095b919061239c565b81516020818401810180516001825292820191850191909120919052805482908110610f8957600080fd5b6000611822611a8e565b604051806060016040528087815260200188815260200186815250905060008860405161184f919061239c565b90815260408051918290036020908101832060608401835284845283820188905291830186905281546001810183556000928352912082516005909202019061189b9082906003611ab5565b506020820151600382015560409091015160049182015580546001810182556000919091527f8a35acfbc15ff81a39ae7d344fd709f28e8600b4aa8c65c6b64bfe7fe36bd19b016118ec898261248e565b5060006002876040516118ff919061239c565b90815260200160405180910390206002015413156119715782600287604051611928919061239c565b9081526020016040518091039020600301546119449190612417565b600287604051611954919061239c565b908152604051908190036020019020600301555060019050611a2e565b600380546001810182556000919091527fc2575a0e9e593c00f959f8c92f12db2869c3395a3b0502d05e2516446f71f85b016119ad878261248e565b506040518060800160405280878152602001888152602001858152602001848152506002876040516119df919061239c565b908152604051908190036020019020815181906119fc908261248e565b5060208201516001820190611a11908261248e565b506040820151600282015560609091015160039091015550600190505b9695505050505050565b600082600283604051611a4b919061239c565b9081526040519081900360200190206002015550600192915050565b6040518060600160405280611a7a611a8e565b815260200160008152602001600081525090565b60405180606001604052806003905b6060815260200190600190039081611a9d5790505090565b8260038101928215611aee579160200282015b82811115611aee5782518290611ade908261248e565b5091602001919060010190611ac8565b50611afa929150611afe565b5090565b80821115611afa576000611b128282611b1b565b50600101611afe565b508054611b27906122d6565b6000825580601f10611b37575050565b601f016020900490600052602060002090810190611b559190611b58565b50565b5b80821115611afa5760008155600101611b59565b600060208284031215611b7f57600080fd5b5035919050565b60005b83811015611ba1578181015183820152602001611b89565b50506000910152565b60008151808452611bc2816020860160208601611b86565b601f01601f19169290920160200192915050565b6020815260006112856020830184611baa565b634e487b7160e01b600052604160045260246000fd5b604051601f8201601f191681016001600160401b0381118282101715611c2757611c27611be9565b604052919050565b600082601f830112611c4057600080fd5b81356001600160401b03811115611c5957611c59611be9565b611c6c601f8201601f1916602001611bff565b818152846020838601011115611c8157600080fd5b816020850160208301376000918101602001919091529392505050565b60006001600160401b03821115611cb757611cb7611be9565b5060051b60200190565b600082601f830112611cd257600080fd5b81356020611ce7611ce283611c9e565b611bff565b82815260059290921b84018101918181019086841115611d0657600080fd5b8286015b84811015611d455780356001600160401b03811115611d295760008081fd5b611d378986838b0101611c2f565b845250918301918301611d0a565b509695505050505050565b60008060408385031215611d6357600080fd5b82356001600160401b0380821115611d7a57600080fd5b611d8686838701611c2f565b93506020850135915080821115611d9c57600080fd5b50611da985828601611cc1565b9150509250929050565b604081526000611dc66040830185611baa565b90508260208301529392505050565b600060208284031215611de757600080fd5b81356001600160401b03811115611dfd57600080fd5b611e0984828501611c2f565b949350505050565b8051606080845260009160c08501918501835b6003811015611e5657605f19878503018252611e41848451611baa565b93506020928301929190910190600101611e24565b50505060208301516020850152604083015160408501528091505092915050565b6000602080830181845280855180835260408601915060408160051b870101925083870160005b82811015611ecc57603f19888603018452611eba858351611e11565b94509285019290850190600101611e9e565b5092979650505050505050565b60008060408385031215611eec57600080fd5b82356001600160401b0380821115611f0357600080fd5b611f0f86838701611c2f565b93506020850135915080821115611f2557600080fd5b50611da985828601611c2f565b608081526000611f456080830187611baa565b8281036020840152611f578187611baa565b604084019590955250506060015292915050565b60008060408385031215611f7e57600080fd5b82356001600160401b03811115611f9457600080fd5b611fa085828601611c2f565b95602094909401359450505050565b6000602080830181845280855180835260408601915060408160051b870101925083870160005b82811015611ecc57603f19888603018452611ff2858351611baa565b94509285019290850190600101611fd6565b6020815260006112856020830184611e11565b60008060006060848603121561202c57600080fd5b8335925060208401356001600160401b038082111561204a57600080fd5b61205687838801611c2f565b9350604086013591508082111561206c57600080fd5b5061207986828701611c2f565b9150509250925092565b60208152600082516080602084015261209f60a0840182611baa565b90506020840151601f198483030160408501526120bc8282611baa565b91505060408401516060840152606084015160808401528091505092915050565b600080600080608085870312156120f357600080fd5b84356001600160401b038082111561210a57600080fd5b61211688838901611c2f565b955060209150818701358181111561212d57600080fd5b61213989828a01611c2f565b95505060408701358181111561214e57600080fd5b61215a89828a01611cc1565b94505060608701358181111561216f57600080fd5b87019050601f8101881361218257600080fd5b8035612190611ce282611c9e565b81815260059190911b8201830190838101908a8311156121af57600080fd5b928401925b828410156121cd578335825292840192908401906121b4565b979a9699509497505050505050565b60008060008060008060c087890312156121f557600080fd5b86356001600160401b038082111561220c57600080fd5b6122188a838b01611c2f565b9750602089013591508082111561222e57600080fd5b61223a8a838b01611c2f565b9650604089013591508082111561225057600080fd5b61225c8a838b01611c2f565b9550606089013591508082111561227257600080fd5b5061227f89828a01611c2f565b9350506080870135915060a087013590509295509295509295565b600080604083850312156122ad57600080fd5b8235915060208301356001600160401b038111156122ca57600080fd5b611da985828601611c2f565b600181811c908216806122ea57607f821691505b60208210810361230a57634e487b7160e01b600052602260045260246000fd5b50919050565b634e487b7160e01b600052603260045260246000fd5b6000808354612334816122d6565b6001828116801561234c576001811461236157612390565b60ff1984168752821515830287019450612390565b8760005260208060002060005b858110156123875781548a82015290840190820161236e565b50505082870194505b50929695505050505050565b600082516123ae818460208701611b86565b9190910192915050565b634e487b7160e01b600052601160045260246000fd5b6000600182016123e0576123e06123b8565b5060010190565b80820260008212600160ff1b84141615612403576124036123b8565b81810583148215176111ba576111ba6123b8565b8082018281126000831280158216821582161715612437576124376123b8565b505092915050565b601f82111561248957600081815260208120601f850160051c810160208610156124665750805b601f850160051c820191505b8181101561248557828155600101612472565b5050505b505050565b81516001600160401b038111156124a7576124a7611be9565b6124bb816124b584546122d6565b8461243f565b602080601f8311600181146124f057600084156124d85750858301515b600019600386901b1c1916600185901b178555612485565b600085815260208120601f198616915b8281101561251f57888601518255948401946001909101908401612500565b508582101561253d5787850151600019600388901b60f8161c191681555b5050505050600190811b01905550565b8181036000831280158383131683831282161715610cc757610cc76123b856fea26469706673582212200edd9e2507ce055af6d7f6e32b6b0439bb7847405337a679703f6dee545d06c264736f6c63430008110033",
  "immutableReferences": {},
  "source": "pragma solidity 0.8.17;\n\n//SPDX-License-Identifier: MIT\n\ncontract Data {\n    //-----------------------------struct initializing\n    struct stock {\n        string[3] supply; // for stockin id ,name , expirydate  // for stockOut id , status, chill(doesnt matter )\n        int256 price;\n        int256 quantity;\n    }\n\n    struct supply {\n        string id;\n        string name;\n        int256 price;\n        int256 quantity;\n    }\n\n    struct User {\n        uint256 user_Type;\n        string email;\n        string password;\n    }\n    //------------------------------------------ varaiable decleartaion\n    mapping(string => stock[]) public valuesIn;\n    mapping(string => stock[]) public valuesOut;\n    mapping(string => supply) public updated;\n    string[] public ProductId; //storing keys for updated\n    string[] public datesOfDataEntry; // //storing keys for expirary\n\n    User[] private user;\n\n    //---------------------------------------constructor---------\n    constructor() {\n        user.push(User(1, \"admin@gmail.com\", \"admin\")); // store information who deployed contract\n    }\n\n    //--------------------------------------fucntions------------------\n\n    function getlengthuser() public view returns (uint256) {\n        return user.length;\n    }\n\n    function sameaccountcheck(string memory mail) public view returns (bool) {\n        for (uint256 i = 0; i < user.length; i++) {\n            if (\n                keccak256(abi.encodePacked(user[i].email)) ==\n                keccak256(abi.encodePacked(mail))\n            ) {\n                return true;\n            }\n        }\n        return false;\n    }\n\n    function login(string memory mail, string memory passcode)\n        public\n        view\n        returns (uint256 utype, uint256 id)\n    {\n        for (uint256 i = 0; i < getlengthuser(); i++) {\n            if (\n                keccak256(abi.encodePacked(user[i].email)) ==\n                keccak256(abi.encodePacked(mail)) &&\n                keccak256(abi.encodePacked(user[i].password)) ==\n                keccak256(abi.encodePacked(passcode))\n            ) {\n                return (user[i].user_Type, i);\n            }\n        }\n        return (0, 0);\n    }\n\n    function signup(\n        uint256 utype,\n        string memory mail,\n        string memory passcode\n    ) public returns (bool) {\n        if (sameaccountcheck(mail) == true) {\n            return false;\n        }\n        user.push(User(utype, mail, passcode));\n        return true;\n    }\n\n    function datain(\n        string memory _date,\n        string memory _name,\n        string memory _number,\n        string memory expirydate,\n        int256 _price,\n        int256 quantity\n    ) public returns (bool) {\n        string[3] memory dummy;\n        dummy = [_number, _name, expirydate];\n        valuesIn[_date].push(stock(dummy, _price, quantity));\n        datesOfDataEntry.push(_date); //storing the keys of data enter\n        if (updated[_number].price > 0) {\n            //for old product\n            updated[_number].quantity = updated[_number].quantity + quantity;\n            return true;\n        } else {\n            //for new product\n            ProductId.push(_number);\n            updated[_number] = supply(_number, _name, _price, quantity);\n            return true;\n        }\n    }\n\n    //status will be change from the front end from sold to expire\n    function dataout(\n        string memory _date,\n        string memory _status,\n        string[] memory _number,\n        int256[] memory quantity\n    ) public {\n        for (uint256 i = 0; i < _number.length; i++) {\n            if (updated[_number[i]].price > 0) {\n                string[3] memory dummy;\n                dummy = [_number[i], _status, \"chill\"];\n                valuesOut[_date].push(\n                    stock(dummy, updated[_number[i]].price, quantity[i])\n                );\n                if (updated[_number[i]].quantity < quantity[i]) {\n                    updated[_number[i]].quantity = 0;\n                } else {\n                    updated[_number[i]].quantity =\n                        updated[_number[i]].quantity -\n                        quantity[i];\n                }\n            }\n            // product doesnot exsist in update and stock In\n        }\n    }\n\n    // function handelCart(string memory _date , string [] memory ids , int[] memory productQuantity) public {\n    //         for(uint i = 0 ; i< ids.length ; i++)\n    //         {\n    //                 dataout(_date, \"sold\" , ids[i] ,productQuantity[i]);\n    //         }\n\n    // }\n\n    function expiray(string memory _date, string[] memory inputID)\n        public\n        view\n        returns (string memory ids, int256 quantity)\n    {\n        string memory ID;\n        int256 quantityarr = 0;\n        bool flag = true;\n        // string [] memory ID = new string [](1);\n        // int [] memory quantityarr;\n        // uint index=0;\n        for (uint256 i = 0; i < datesOfDataEntry.length; i++) {\n            for (uint256 j = 0; j < valuesIn[datesOfDataEntry[i]].length; j++) {\n                flag = true;\n                if (\n                    keccak256(\n                        abi.encodePacked(\n                            valuesIn[datesOfDataEntry[i]][j].supply[2]\n                        )\n                    ) == keccak256(abi.encodePacked(_date))\n                ) {\n                    if (inputID.length > 0) {\n                        for (uint256 k = 0; k < inputID.length; k++) {\n                            if (\n                                keccak256(\n                                    abi.encodePacked(\n                                        valuesIn[datesOfDataEntry[i]][j].supply[\n                                            0\n                                        ]\n                                    )\n                                ) == keccak256(abi.encodePacked(inputID[k]))\n                            ) {\n                                flag = false;\n                            }\n                        }\n                        if (flag == true) {\n                            quantityarr = valuesIn[datesOfDataEntry[i]][j]\n                                .quantity;\n                            ID = valuesIn[datesOfDataEntry[i]][j].supply[0];\n                            // quantityarr[index] = valuesIn[datesOfDataEntry[i]][j].quantity;\n                            // ID[index] = valuesIn[datesOfDataEntry[i]][j].supply[0];\n                            return (ID, quantityarr);\n                            //                      dataout(_date,\"expiray\",ID[index],quantityarr[index]);\n                            //index++;\n                        }\n                    } else {\n                        quantityarr = valuesIn[datesOfDataEntry[i]][j].quantity;\n                        ID = valuesIn[datesOfDataEntry[i]][j].supply[0];\n                        // quantityarr[index] = valuesIn[datesOfDataEntry[i]][j].quantity;\n                        // ID[index] = valuesIn[datesOfDataEntry[i]][j].supply[0];\n                        return (ID, quantityarr);\n                        //                      dataout(_date,\"expiray\",ID[index],quantityarr[index]);\n                        //index++;\n                    }\n                }\n            }\n        }\n        return (\"NOTHING FOUND\", quantityarr);\n    }\n\n\n    function updatePrice(int price, string memory id) public returns (bool)\n    {\n        updated[id].price= price;\n        return true;\n\n    }\n      \n\n\n    function totalSpendings(string memory date)\n        public\n        view\n        returns (int256 spendings)\n    {\n        int256 spends = 0;\n        for (uint256 j = 0; j < valuesIn[date].length; j++) {\n            spends =\n                spends +\n                (valuesIn[date][j].quantity * valuesIn[date][j].price);\n        }\n        return spends;\n    }\n\n    function totalEarnings(string memory date)\n        public\n        view\n        returns (int256 earning)\n    {\n        int256 earns = 0;\n        for (uint256 j = 0; j < valuesOut[date].length; j++) {\n            if (\n                keccak256(abi.encodePacked(valuesOut[date][j].supply[1])) ==\n                keccak256(abi.encodePacked(\"sold\"))\n            ) {\n                earns =\n                    earns +\n                    (valuesIn[date][j].quantity * valuesIn[date][j].price);\n            }\n        }\n        return earns;\n    }\n\n    //fucntion to return updated arr\n    function returnupdate(uint256 index) public view returns (supply memory) {\n        return (updated[ProductId[index]]);\n    }\n\n    function returndatain(string memory date)\n        public\n        view\n        returns (stock[] memory)\n    {\n        return (valuesIn[date]);\n    }\n\n    function returndataout(string memory date)\n        public\n        view\n        returns (stock[] memory)\n    {\n        return (valuesOut[date]);\n    }\n\n    function returndatainLength(string memory date)\n        public\n        view\n        returns (uint256)\n    {\n        return (valuesIn[date].length);\n    }\n\n    function returndatainLengthindex(string memory date, uint256 id)\n        public\n        view\n        returns (stock memory)\n    {\n        return (valuesIn[date][id]);\n    }\n\n    function returndataoutLength(string memory date)\n        public\n        view\n        returns (uint256)\n    {\n        return (valuesOut[date].length);\n    }\n\n    function returnProductIdLength() public view returns (uint256) {\n        return (ProductId.length);\n    }\n\n    function returnProductId() public view returns (string[] memory) {\n        return (ProductId);\n    }\n}\n",
  "sourcePath": "/home/hassaan/Desktop/main/contracts/data.sol",
  "compiler": {
    "name": "solc",
    "version": "0.8.17+commit.8df45f5f.Emscripten.clang"
  },
  "schemaVersion": "3.4.11",
  "updatedAt": "2023-01-01T15:07:45.497Z",
  "networkType": "ethereum",
  "devdoc": {
    "kind": "dev",
    "methods": {},
    "version": 1
  },
  "userdoc": {
    "kind": "user",
    "methods": {},
    "version": 1
  }
}