{
  "contractName": "Money",
  "abi": [
    {
      "inputs": [],
      "stateMutability": "nonpayable",
      "type": "constructor"
    },
    {
      "inputs": [],
      "name": "owner",
      "outputs": [
        {
          "internalType": "address",
          "name": "",
          "type": "address"
        }
      ],
      "stateMutability": "view",
      "type": "function",
      "constant": true
    },
    {
      "stateMutability": "payable",
      "type": "receive",
      "payable": true
    },
    {
      "inputs": [],
      "name": "getbalance",
      "outputs": [
        {
          "internalType": "uint256",
          "name": "",
          "type": "uint256"
        }
      ],
      "stateMutability": "view",
      "type": "function",
      "constant": true
    },
    {
      "inputs": [
        {
          "internalType": "uint256",
          "name": "amount",
          "type": "uint256"
        },
        {
          "internalType": "address payable",
          "name": "destAddr",
          "type": "address"
        }
      ],
      "name": "withdraw",
      "outputs": [],
      "stateMutability": "payable",
      "type": "function",
      "payable": true
    },
    {
      "inputs": [],
      "name": "transLength",
      "outputs": [
        {
          "internalType": "uint256",
          "name": "",
          "type": "uint256"
        }
      ],
      "stateMutability": "view",
      "type": "function",
      "constant": true
    },
    {
      "inputs": [
        {
          "internalType": "uint256",
          "name": "i",
          "type": "uint256"
        }
      ],
      "name": "getAllTrasaction",
      "outputs": [
        {
          "components": [
            {
              "internalType": "address",
              "name": "wallet",
              "type": "address"
            },
            {
              "internalType": "string",
              "name": "status",
              "type": "string"
            },
            {
              "internalType": "uint256",
              "name": "value",
              "type": "uint256"
            }
          ],
          "internalType": "struct Money.trasaction",
          "name": "",
          "type": "tuple"
        }
      ],
      "stateMutability": "view",
      "type": "function",
      "constant": true
    },
    {
      "inputs": [],
      "name": "getAddress",
      "outputs": [
        {
          "internalType": "address",
          "name": "",
          "type": "address"
        }
      ],
      "stateMutability": "view",
      "type": "function",
      "constant": true
    },
    {
      "inputs": [],
      "name": "returnowner",
      "outputs": [
        {
          "internalType": "address",
          "name": "",
          "type": "address"
        }
      ],
      "stateMutability": "view",
      "type": "function",
      "constant": true
    }
  ],
  "bytecode": "0x6080604052600060035534801561001557600080fd5b50600080546001600160a01b0319163317905561075a806100376000396000f3fe6080604052600436106100735760003560e01c80634d9b3d5d1161004e5780634d9b3d5d1461018c57806389c95560146101ab5780638da5cb5b146101c0578063c49188b1146101e057600080fd5b8062f714ce1461012d5780633393f7a51461014257806338cc48311461017957600080fd5b3661012857346001600082825461008a91906104b8565b9091555050604080516060810182523381528151808301835260048152631c185a5960e21b60208083019190915280830191825234838501526003546000908152600290915292909220815181546001600160a01b0319166001600160a01b03909116178155915190919060018201906101049082610570565b50604091909101516002909101556003805490600061012283610630565b91905055005b600080fd5b61014061013b366004610649565b61020d565b005b34801561014e57600080fd5b506000546001600160a01b03165b6040516001600160a01b0390911681526020015b60405180910390f35b34801561018557600080fd5b503061015c565b34801561019857600080fd5b506001545b604051908152602001610170565b3480156101b757600080fd5b5060035461019d565b3480156101cc57600080fd5b5060005461015c906001600160a01b031681565b3480156101ec57600080fd5b506102006101fb366004610685565b6103a6565b604051610170919061069e565b6000546001600160a01b0316331461026c5760405162461bcd60e51b815260206004820152601760248201527f4f6e6c79206f776e65722063616e20776974686472617700000000000000000060448201526064015b60405180910390fd5b6001548211156102b35760405162461bcd60e51b8152602060048201526012602482015271496e73756666696369656e742066756e647360701b6044820152606401610263565b6040516001600160a01b0382169083156108fc029084906000818181858888f193505050501580156102e9573d6000803e3d6000fd5b5081600160008282546102fc9190610711565b9091555050604080516060810182526001600160a01b038381168252825180840184526008815267776974686472617760c01b6020808301919091528084019182528385018790526003546000908152600290915293909320825181546001600160a01b03191692169190911781559151909190600182019061037f9082610570565b50604091909101516002909101556003805490600061039d83610630565b91905055505050565b6103d3604051806060016040528060006001600160a01b0316815260200160608152602001600081525090565b60008281526002602090815260409182902082516060810190935280546001600160a01b03168352600181018054919284019161040f906104e7565b80601f016020809104026020016040519081016040528092919081815260200182805461043b906104e7565b80156104885780601f1061045d57610100808354040283529160200191610488565b820191906000526020600020905b81548152906001019060200180831161046b57829003601f168201915b505050505081526020016002820154815250509050919050565b634e487b7160e01b600052601160045260246000fd5b808201808211156104cb576104cb6104a2565b92915050565b634e487b7160e01b600052604160045260246000fd5b600181811c908216806104fb57607f821691505b60208210810361051b57634e487b7160e01b600052602260045260246000fd5b50919050565b601f82111561056b57600081815260208120601f850160051c810160208610156105485750805b601f850160051c820191505b8181101561056757828155600101610554565b5050505b505050565b815167ffffffffffffffff81111561058a5761058a6104d1565b61059e8161059884546104e7565b84610521565b602080601f8311600181146105d357600084156105bb5750858301515b600019600386901b1c1916600185901b178555610567565b600085815260208120601f198616915b82811015610602578886015182559484019460019091019084016105e3565b50858210156106205787850151600019600388901b60f8161c191681555b5050505050600190811b01905550565b600060018201610642576106426104a2565b5060010190565b6000806040838503121561065c57600080fd5b8235915060208301356001600160a01b038116811461067a57600080fd5b809150509250929050565b60006020828403121561069757600080fd5b5035919050565b6000602080835260018060a01b03845116818401528084015160606040850152805180608086015260005b818110156106e55782810184015186820160a0015283016106c9565b50600060a082870101526040860151606086015260a0601f19601f830116860101935050505092915050565b818103818111156104cb576104cb6104a256fea2646970667358221220da7ac1c36d919c7666c879d87559c6f0002f8b0f0c5dcfc0fb19875ffab69b4764736f6c63430008110033",
  "immutableReferences": {},
  "source": "pragma solidity ^0.8.17;\n\n// SPDX-License-Identifier: MIT\n\ncontract Money {\n    // 0x5da69516c0255c676817AAd02c686ecB101D0E33\n    address public owner;\n    uint256 private balance;\n    struct trasaction {\n        address wallet;\n        string status;\n        uint256 value;\n    }\n\n    //\t    trasaction[] public trasactionData;\n    mapping(uint256 => trasaction) private trasactionData;\n    uint256 nextTransId = 0;\n\n    constructor() {\n        owner = msg.sender; // store information who deployed contract\n    }\n\n    receive() external payable {\n        balance += msg.value; // keep track of balance (in WEI)\n        //\t\t\ttrasactionData.push(trasaction(msg.sender, \"paid\" , msg.value));\n        trasactionData[nextTransId] = trasaction(msg.sender, \"paid\", msg.value);\n        nextTransId++;\n    }\n\n    function getbalance() public view returns (uint256) {\n        return balance;\n    }\n\n    function withdraw(uint256 amount, address payable destAddr) public payable {\n        require(msg.sender == owner, \"Only owner can withdraw\");\n        require(amount <= balance, \"Insufficient funds\");\n\n        destAddr.transfer(amount); // send funds to given address\n        balance -= amount;\n\n        //trasactionData.push(trasaction(destAddr, \"withdraw\" , amount));\n        trasactionData[nextTransId] = trasaction(destAddr, \"withdraw\", amount);\n        nextTransId++;\n    }\n\n    function transLength() public view returns (uint256) {\n        return nextTransId;\n    }\n\n    function getAllTrasaction(uint256 i)\n        public\n        view\n        returns (trasaction memory)\n    {\n        return trasactionData[i];\n    }\n\n    /*\t\tfunction getAllTrasaction() public view returns(address[] memory  , string[] memory  , uint256[] memory  ) {\n\t\t\tstring[] memory status;\n\t\t\taddress[] memory addr; \n\t\t\tuint256[] memory amount;\n\t\t\tfor(uint i  = 0; i < trasactionData.length ;  i++)\n\t\t\t{\n\t\t\t\taddr[i] = trasactionData[i].wallet;\n\t\t\t\tstatus[i] = trasactionData[i].status;\n\t\t\t\tamount[i] = trasactionData[i].value;\n\t\t\t}\n\t\t\treturn(addr,status, amount);\n\t\t\t\n\t\t}\n*/\n    function getAddress() external view returns (address) {\n        return address(this);\n    }\n\n    function returnowner () external view returns (address) {\n            return owner;\n\n    }\n}\n",
  "sourcePath": "/home/hassaan/Desktop/main/contracts/Money.sol",
  "compiler": {
    "name": "solc",
    "version": "0.8.17+commit.8df45f5f.Emscripten.clang"
  },
  "schemaVersion": "3.4.11",
  "updatedAt": "2023-01-01T15:07:46.030Z",
  "networkType": "ethereum",
  "devdoc": {
    "kind": "dev",
    "methods": {},
    "version": 1
  },
  "userdoc": {
    "kind": "user",
    "methods": {},
    "version": 1
  }
}